:100000000C9449000C9407030C9411030C941B03EB
:100010000C9425030C942F030C9439030C94430384
:100020000C944D030C9468000C9468000C946800C8
:100030000C9468000C9468000C9468000C945703AE
:100040000C9479020C9468000C9468000C9468007D
:100050000C9468000C948A020C9468000C9468005C
:100060000C9468000C9468000C9468000C94680070
:100070000C9468000C9468000C9468000C94680060
:100080000C9468000C9468000C94680000081C181C
:10009000141011241FBECFEFD0E1DEBFCDBF11E0A1
:1000A000A0E0B1E0E6E5FFE000E00BBF02C0079092
:1000B0000D92A230B107D9F711E0A2E0B1E001C082
:1000C0001D92A934B107E1F70E94B4060C94AA0767
:1000D0000C9400008FB7F894992708958FBF089566
:1000E000282F9FB7F894E82FFF27ED5EFE4F808101
:1000F0008F3F81F4E0914801E21771F40BC0209327
:10010000440104C0FF27ED5EFE4F20832093480189
:1001100020E007C025E005C0809144018F3F91F7A2
:10012000EECF892F99278FBF822F99270895EF92BD
:100130000F931F93AE2D99E0899FF0011124E95D83
:10014000FE4F408351836283738304831583268328
:100150003783A17080858E7F8A2B8260808781E0C3
:100160000E9470001F910F91EF9008957FB7F8944F
:1001700062B720910A0130910B0140910C0150911E
:100180000D0106B601FE0FC081B792B7280F311DD1
:10019000411D511D2F5F3F4F4F4F5F4F290F311DA5
:1001A000411D511D04C0260F311D411D511D872FBA
:1001B00099278FBFCA01B9010895982F96959695F2
:1001C0009695E2E1F1E0E90FF11D877021E030E062
:1001D00002C0220F331F8A95E2F78081822399277C
:1001E00008951F93CF93DF9380910601882319F020
:1001F00081E090E053C08FB7F894282F3327122F57
:1002000080910901882349F581E0809309011092CA
:1002100022012FBF8FB7F8949927379A8FBF8FB7D6
:10022000F894C82FDD279C2F80910101813099F42B
:1002300080910901813021F487E00E94700009C09B
:10024000823049F4809122018093010183E0809300
:100250000901CFBF21C09FBF1FC080912201882309
:1002600011F42FBF19C080E00E94DD00882319F02F
:1002700085E090E007C080911201816080931201B7
:1002800080E090E01FBF282F882319F481E080933D
:100290000601822F992702C020E0F8CFDF91CF918D
:1002A0001F910895982F969596959695E6E2F1E020
:1002B000E90FF11D877021E030E002C0220F331FEB
:1002C0008A95E2F7808182239927089580914701DA
:1002D000882319F02FE170E002C078E021E0622F5E
:1002E000EFB7F894809120018E7F8093200187B131
:1002F000982F9F71829586958695837019F080E07E
:1003000090E012C0822F8850863118F081E090E092
:100310000BC040E050E03327892F99272817390771
:1003200011F441E050E0CA01982F9170990F80912B
:1003300020018178262F2F71422F440F440F892BE3
:10034000842B80932001332727B9783059F5809189
:1003500045019091460121E08638920718F087E028
:1003600090E01FC0833C910518F086E090E019C032
:100370008136910518F085E090E013C08033910537
:1003800018F084E090E00DC08831910518F083E00A
:1003900090E007C00C9718F082E090E002C080E087
:1003A00090E0782F7770887D872B886D992786B9A4
:1003B0008E2F99278FBF0895DF92EF92FF920F93B0
:1003C0001F938FB7F894282F3327D22E91B782B777
:1003D00046B7981711F041FF02C02FBF6AC0809145
:1003E00025018823E1F10E94B600E0903B01F090E6
:1003F0003C0100913D0110913E0120910E01309190
:100400000F0140911001509111016E197F09800B6D
:10041000910B621773078407950720F0109225014E
:1004200071E01EC02E0D3F1D401F511F80910A011B
:1004300090910B01A0910C01B0910D01281B390B7B
:100440004A0B5B0B273E31054105510540F4822FD5
:10045000223010F070E005C070E082E002C070E071
:1004600086EE682F615000B601FCFDCF82B7681799
:1004700009F46F5F20910A0130910B0140910C014A
:1004800050910D01DA01C9010196A11DB11D860F20
:10049000911DA11DB11D82179307A407B50710F484
:1004A000622F609561BFDFBE772319F080E00E9464
:1004B00070001F910F91FF90EF90DF900895AFB7FC
:1004C000F894BB27E1E0E093250160933B01709332
:1004D0003C0180933D0190933E0120930E013093A7
:1004E0000F014093100150931101AFBF0E94DC0136
:1004F00008951F920F920FB60F9211248F9383B716
:1005000083BF00B600FCFDCF8F910F900FBE0F9000
:100510001F9018951F920F920FB60F9211242F93D0
:100520003F934F935F936F937F938F939F93AF937B
:10053000BF93EF93FF9344B155B178948FB7F8947C
:10054000992720912001322F3695317021708FBF6D
:10055000222331F5339880912401813021F08230BB
:1005600009F044C008C0332341F050933A0140934E
:10057000390188E012C0332319F40E94660136C0A5
:100580001092240180914701882381F51092230164
:1005900050931D0140931C0186E00E94700026C00C
:1005A0008FB7F89499278FBF2FB7F894332786B168
:1005B000582F5770482F4072987D942B952B80743C
:1005C000977B982B90619F77892F992786B9887D93
:1005D000842B852B87738061992786B9887D842B2E
:1005E000852B877B8069992786B92FBFFF91EF9173
:1005F000BF91AF919F918F917F916F915F914F913B
:100600003F912F910F900FBE0F901F9018951F9242
:100610000F920FB60F9211240F900FBE0F901F90E4
:1006200018951F920F920FB60F9211240F900FBEC4
:100630000F901F9018951F920F920FB60F921124D2
:100640000F900FBE0F901F9018951F920F920FB62C
:100650000F9211240F900FBE0F901F9018951F92AC
:100660000F920FB60F9211240F900FBE0F901F9094
:1006700018951F920F920FB60F9211240F900FBE74
:100680000F901F9018951F920F920FB60F92112482
:100690000F900FBE0F901F9018951F920F920FB6DC
:1006A0000F9211240F900FBE0F901F9018951F925C
:1006B0000F920FB60F9211242F933F934F935F9396
:1006C0006F937F938F939F93AF93BF93EF93FF931A
:1006D00083B783BF00B600FCFDCF81B79927019691
:1006E000AA27BB2720910A0130910B0140910C01F0
:1006F00050910D01280F391F4A1F5B1F20930A01DB
:1007000030930B0140930C0150930D0178940E949B
:10071000DC01FF91EF91BF91AF919F918F917F91FC
:100720006F915F914F913F912F910F900FBE0F905E
:100730001F9018959F92AF92BF92CF92DF92EF9247
:10074000FF920F931F935B016C0190902F0191FE1C
:1007500020C020912701309128014091290150911A
:100760002A01E0902B01F0902C0100912D011091B5
:100770002E01DC01CB01821B930BA40BB50B8E1554
:100780009F05A007B10728F0E7E2F1E060E070E024
:1007900022C0E0E3F1E09090380191FE94C02091F6
:1007A0003001309131014091320150913301E0909C
:1007B0003401F09035010091360110913701A21AF1
:1007C000B30AC40AD50AAE14BF04C006D10608F4A1
:1007D0007AC061E070E090FE04C080858D7F8087E4
:1007E00008C02E0D3F1D401F511F208331834283BF
:1007F0005383662321F0613009F065C02AC08FB7AA
:10080000F894082F112780910301882389F491E03F
:100810009093030110923F010FBF80910401882340
:1008200021F483E00E9470004EC0909305014BC0FC
:1008300080913F01882309F443C080E00E94520167
:10084000882309F03DC080912601816080932601B4
:1008500037C09FB7F89420910301222319F421E0B7
:1008600030E00FC080910001813019F020E030E0CD
:1008700008C040E050E02150223010F441E050E048
:100880009A01892F99278FBF2223E9F08FB7F89417
:10089000082F1127902F80910001813099F48091C9
:1008A0000301813021F482E00E94700009C082308F
:1008B00049F480913F018093000183E0809303011C
:1008C0000FBF01C09FBF81E00E9470001F910F9178
:1008D000FF90EF90DF90CF90BF90AF909F900895E2
:1008E0008F929F92AF92BF92CF92DF92EF92FF9240
:1008F0000F931F93982F843009F400C1853060F462
:10090000813009F449C08130A0F0823009F4C4C0BC
:10091000833009F001C2EFC0863009F455C186303A
:1009200008F4F7C0873009F4B9C1883009F0F4C180
:10093000D4C180911E01882361F52091400130913E
:1009400041014091420150914301EFB7F894FF27D4
:1009500060913B0170913C0180913D0190913E017D
:10096000E0900E01F0900F01009110011091110123
:100970006E0D7F1D801F911FEFBF209340013093AC
:100980004101409342015093430110921E010E9485
:100990005F020E94B6006DC00E94B6005B016C0150
:1009A0008FB7F8949927109225018FBF80912F015E
:1009B00081FF25C08091270190912801A0912901F4
:1009C000B0912A01A6019501281B390B4A0B5B0B3C
:1009D000E0902B01F0902C0100912D0110912E013F
:1009E000E21AF30A040B150B3FEFE3163FEFF30691
:1009F0003FEF03073FE7130711F061E009C09FEFE6
:100A0000E92E9FEFF92E9FEF092F9FE7192F60E046
:100A10008091380181FF21C0809130019091310196
:100A2000A0913201B0913301A6019501281B390B29
:100A30004A0B5B0BDA01C901209134013091350179
:100A40004091360150913701281B390B4A0B5B0B43
:100A50002E153F05400751072CF0662309F45CC1B1
:100A6000A801970112161306140615062CF0C601EC
:100A7000B5010E949A0350C1209340013093410177
:100A8000409342015093430181E080931E01C601CF
:100A9000B5010E945F0240C12FB7F89433278091BF
:100AA0003F018093000183E0809303012FBF1091E9
:100AB00000018FB7F894282F3327422F809101012E
:100AC000882359F480910901833039F42FBF809134
:100AD0000701882309F020C102C04FBF1DC19093B8
:100AE0002401109247010E94660181E08093070172
:100AF00010931F0111C10E94F1000EC180910601E7
:100B0000813009F009C11D98159885E00E94700098
:100B100003C18FB7F894C82E80910901833009F082
:100B200041C0809101018823E9F580911201882359
:100B300009F0DDC0D5C0ED2DE695E695E695FF27D9
:100B40004D2D5527EE5EFE4F9A012770307081E0E3
:100B500090E002C0880F991F2A95E2F780952081C6
:100B6000282320830093080112C00F5F1F4F01301C
:100B7000110511F400E010E0D02E802F0E94DD005E
:100B80008823C9F60E151F0581F74FEF50E04093FB
:100B900022018FEF8093010181E08093090187E0BA
:100BA0000E947000CFBE1092060180910501813035
:100BB00011F40E94F1008FB7F89499271092050163
:100BC000109204018FBFA8C010920701A0901C01D1
:100BD000B0901D018090230190901F018FB7F89471
:100BE000C82E80910301833009F041C0809100013B
:100BF0008915E9F580912601882309F087C07DC019
:100C0000ED2DE695E695E695FF274D2D5527EA5DF6
:100C1000FE4F9A012770307081E090E002C0880F8B
:100C2000991F2A95E2F7809520812823208300933D
:100C3000020112C00F5F1F4F0130110511F400E0D7
:100C400010E0D02E802F0E9452018823C9F60E1585
:100C50001F0581F74FEF50E040933F018FEF8093E6
:100C6000000181E08093030182E00E947000CFBE0A
:100C7000992009F051C0882009F04EC0A2FE02C0A0
:100C8000D89801C0D89AA1FE02C0D99801C0D99ABB
:100C9000A0FE02C0DA9840C0DA9A3EC02FB7F8949E
:100CA0003327809122018093010183E08093090121
:100CB0002FBF80910101882379F5159A1D9A0E9412
:100CC000B600AB01BC0181E0E82E0AE010E020E0B4
:100CD00030E081E00E9497001FC0109224011CC0E8
:100CE00081E0809301011092090137985BCF8091D8
:100CF0000801E82EFF24870138CF81E080930001AE
:100D0000109203018093040184E0AFCF809102012F
:100D1000E82EFF2487018ECF1F910F91FF90EF9057
:100D2000DF90CF90BF90AF909F908F90089580916B
:100D300044018F3FB1F0282F3327F901ED5EFE4FBC
:100D40008081809344018F3F11F4809348018FEF9D
:100D500080832F3F31F0822F0E94700481E090E069
:100D6000089580E090E00895EF920F931F931FB7CE
:100D7000F89449E050E06FEF70E083E191E00E9469
:100D8000A3078FEF809344018093480181E08EBDDB
:100D900088E080BF83E083BF8CB59DB54AE72CB562
:100DA0003DB52817390708F44150442311F0C90113
:100DB000F6CF92B782B78917E9F32CB53DB592B754
:100DC00082B78917E9F38CB59DB5821B930B4096CA
:100DD00025E0969587952A95E1F7909346018093B3
:100DE000450113BE83B78EBD8EB580BF12BE1DBC3C
:100DF0001CBC8FEF86BF86B780937C0080B7992795
:100E000087709070892BD1F7D29AD19AD09ADA9ABA
:100E1000D99AD89A15BA8FEF84BBD498DC9816B8B3
:100E20000E9497068823E1F7109212011092260182
:100E300080B7886080BF8BE083BF86EE81BF87B7B5
:100E4000826087BF0E94DC010E9497068823E1F739
:100E5000812F99278FBF78940E94B600AB01BC0107
:100E6000EE2404E610E020E030E080E00E949700ED
:100E70008FB7F894482F55274BC087B799278370B1
:100E80009070892B19F4E5E0F0E013C080B7992742
:100E900087709070892BD1F781B792B7891B8C30FE
:100EA00030F082B7853F18F4E3E0F0E002C0E2E002
:100EB000F0E087B7887BC1F480917D008B7FA1F43F
:100EC0006E9912C08AB190919A00892B887161F451
:100ED0008091740082FD08C0379B03C081E090E0E0
:100EE00005C085E090E002C080E090E025B78E1755
:100EF00008F4E82FFF27E457FF4FE491237E206298
:100F0000E22BE5BF78948895F89485B78F7D85BFEF
:100F1000809144018F3F09F4B0CF282F3327F90186
:100F2000ED5EFE4F8081809344018F3F11F48093EA
:100F300048018FEF80832F3F09F49FCF4FBF822F4F
:100F40000E94700495CFDC0101C06D934150504068
:060F5000E0F70895FFCF59
:020F5600010197
:00000001FF
